{
  "_format": "hh-sol-artifact-1",
  "contractName": "mintContractParent",
  "sourceName": "contracts/mintContractParent.sol",
  "abi": [
    {
      "inputs": [
        {
          "internalType": "address",
          "name": "owner",
          "type": "address"
        }
      ],
      "name": "OwnableInvalidOwner",
      "type": "error"
    },
    {
      "inputs": [
        {
          "internalType": "address",
          "name": "account",
          "type": "address"
        }
      ],
      "name": "OwnableUnauthorizedAccount",
      "type": "error"
    },
    {
      "anonymous": false,
      "inputs": [
        {
          "indexed": true,
          "internalType": "address",
          "name": "previousOwner",
          "type": "address"
        },
        {
          "indexed": true,
          "internalType": "address",
          "name": "newOwner",
          "type": "address"
        }
      ],
      "name": "OwnershipTransferred",
      "type": "event"
    },
    {
      "anonymous": false,
      "inputs": [
        {
          "indexed": false,
          "internalType": "address",
          "name": "",
          "type": "address"
        },
        {
          "indexed": false,
          "internalType": "address",
          "name": "",
          "type": "address"
        }
      ],
      "name": "TokenCreated",
      "type": "event"
    },
    {
      "anonymous": false,
      "inputs": [
        {
          "indexed": false,
          "internalType": "address",
          "name": "",
          "type": "address"
        },
        {
          "indexed": false,
          "internalType": "address",
          "name": "",
          "type": "address"
        },
        {
          "indexed": false,
          "internalType": "address",
          "name": "",
          "type": "address"
        },
        {
          "indexed": false,
          "internalType": "uint256",
          "name": "",
          "type": "uint256"
        }
      ],
      "name": "TokenTransfered",
      "type": "event"
    },
    {
      "inputs": [
        {
          "internalType": "address",
          "name": "mintor",
          "type": "address"
        },
        {
          "internalType": "address",
          "name": "tokenAddress",
          "type": "address"
        },
        {
          "internalType": "uint256",
          "name": "start",
          "type": "uint256"
        },
        {
          "internalType": "uint256",
          "name": "end",
          "type": "uint256"
        },
        {
          "internalType": "uint256",
          "name": "price",
          "type": "uint256"
        }
      ],
      "name": "bulkMintERC721",
      "outputs": [],
      "stateMutability": "nonpayable",
      "type": "function"
    },
    {
      "inputs": [
        {
          "internalType": "uint256",
          "name": "tokenId",
          "type": "uint256"
        },
        {
          "internalType": "address",
          "name": "tokenAddress",
          "type": "address"
        }
      ],
      "name": "callPurchaseItem",
      "outputs": [],
      "stateMutability": "payable",
      "type": "function"
    },
    {
      "inputs": [
        {
          "internalType": "string",
          "name": "name",
          "type": "string"
        },
        {
          "internalType": "string",
          "name": "symbol",
          "type": "string"
        }
      ],
      "name": "createToken",
      "outputs": [],
      "stateMutability": "nonpayable",
      "type": "function"
    },
    {
      "inputs": [
        {
          "internalType": "address",
          "name": "tokenContractAddress",
          "type": "address"
        }
      ],
      "name": "getAllTokenId",
      "outputs": [
        {
          "internalType": "uint256[]",
          "name": "",
          "type": "uint256[]"
        }
      ],
      "stateMutability": "view",
      "type": "function"
    },
    {
      "inputs": [],
      "name": "getCountValue",
      "outputs": [
        {
          "internalType": "uint256",
          "name": "",
          "type": "uint256"
        }
      ],
      "stateMutability": "view",
      "type": "function"
    },
    {
      "inputs": [],
      "name": "owner",
      "outputs": [
        {
          "internalType": "address",
          "name": "",
          "type": "address"
        }
      ],
      "stateMutability": "view",
      "type": "function"
    },
    {
      "inputs": [],
      "name": "renounceOwnership",
      "outputs": [],
      "stateMutability": "nonpayable",
      "type": "function"
    },
    {
      "inputs": [
        {
          "internalType": "address",
          "name": "newOwner",
          "type": "address"
        }
      ],
      "name": "transferOwnership",
      "outputs": [],
      "stateMutability": "nonpayable",
      "type": "function"
    },
    {
      "inputs": [
        {
          "internalType": "address",
          "name": "from",
          "type": "address"
        },
        {
          "internalType": "address payable",
          "name": "to",
          "type": "address"
        },
        {
          "internalType": "address",
          "name": "token",
          "type": "address"
        },
        {
          "internalType": "uint256",
          "name": "amount",
          "type": "uint256"
        }
      ],
      "name": "transferToken",
      "outputs": [],
      "stateMutability": "nonpayable",
      "type": "function"
    }
  ],
  "bytecode": "0x608060405234801561001057600080fd5b5033600073ffffffffffffffffffffffffffffffffffffffff168173ffffffffffffffffffffffffffffffffffffffff16036100845760006040517f1e4fbdf700000000000000000000000000000000000000000000000000000000815260040161007b919061019e565b60405180910390fd5b6100938161009960201b60201c565b506101b9565b60008060009054906101000a900473ffffffffffffffffffffffffffffffffffffffff169050816000806101000a81548173ffffffffffffffffffffffffffffffffffffffff021916908373ffffffffffffffffffffffffffffffffffffffff1602179055508173ffffffffffffffffffffffffffffffffffffffff168173ffffffffffffffffffffffffffffffffffffffff167f8be0079c531659141344cd1fd0a4f28419497f9722a3daafe3b4186f6b6457e060405160405180910390a35050565b600073ffffffffffffffffffffffffffffffffffffffff82169050919050565b60006101888261015d565b9050919050565b6101988161017d565b82525050565b60006020820190506101b3600083018461018f565b92915050565b61448c80620001c96000396000f3fe608060405260043610620000925760003560e01c80638ef47da311620000615780638ef47da3146200013d5780639d0df75d14620001815780639e79fbf714620001af578063ee2729e514620001df578063f2fde38b14620001ff5762000092565b80632c54de4f14620000975780632f2f2d5614620000c5578063715018a614620000f35780638da5cb5b146200010d575b600080fd5b348015620000a457600080fd5b50620000c36004803603810190620000bd91906200094e565b6200022d565b005b348015620000d257600080fd5b50620000f16004803603810190620000eb919062000b22565b620002e7565b005b3480156200010057600080fd5b506200010b62000366565b005b3480156200011a57600080fd5b50620001256200037e565b60405162000134919062000bb8565b60405180910390f35b3480156200014a57600080fd5b5062000169600480360381019062000163919062000bd5565b620003a7565b60405162000178919062000cd5565b60405180910390f35b3480156200018e57600080fd5b50620001ad6004803603810190620001a7919062000cf9565b620004ab565b005b348015620001bc57600080fd5b50620001c7620005df565b604051620001d6919062000d92565b60405180910390f35b620001fd6004803603810190620001f7919062000daf565b620005e9565b005b3480156200020c57600080fd5b506200022b600480360381019062000225919062000bd5565b6200065e565b005b8173ffffffffffffffffffffffffffffffffffffffff166368155ec1858585856040518563ffffffff1660e01b81526004016200026e949392919062000e07565b600060405180830381600087803b1580156200028957600080fd5b505af11580156200029e573d6000803e3d6000fd5b505050507fa7814aaf178d6c8e61b2703f3dc1b8328dd6c99cbb405bf8f1bb0cb1bbb051a584848484604051620002d9949392919062000ebf565b60405180910390a150505050565b60008282604051620002f99062000847565b6200030692919062000f95565b604051809103906000f08015801562000323573d6000803e3d6000fd5b5090507fd5f9bdf12adf29dab0248c349842c3822d53ae2bb4f36352f301630d018c813933826040516200035992919062000fd0565b60405180910390a1505050565b62000370620006eb565b6200037c60006200077b565b565b60008060009054906101000a900473ffffffffffffffffffffffffffffffffffffffff16905090565b6060600060015467ffffffffffffffff811115620003ca57620003c9620009db565b5b604051908082528060200260200182016040528015620003f95781602001602082028036833780820191505090505b50905060005b600154811015620004a157600260008573ffffffffffffffffffffffffffffffffffffffff1673ffffffffffffffffffffffffffffffffffffffff16815260200190815260200160002081815481106200045e576200045d62000ffd565b5b90600052602060002001548282815181106200047f576200047e62000ffd565b5b602002602001018181525050808062000498906200105b565b915050620003ff565b5080915050919050565b6000808490505b83811015620005cf5760008673ffffffffffffffffffffffffffffffffffffffff1663a144819489866040518363ffffffff1660e01b8152600401620004fa929190620010a8565b6020604051808303816000875af11580156200051a573d6000803e3d6000fd5b505050506040513d601f19601f82011682018060405250810190620005409190620010ec565b9050600260008873ffffffffffffffffffffffffffffffffffffffff1673ffffffffffffffffffffffffffffffffffffffff1681526020019081526020016000208190806001815401808255809150506001900390600052602060002001600090919091909150558280620005b5906200105b565b935050508080620005c6906200105b565b915050620004b2565b5080600181905550505050505050565b6000600154905090565b8073ffffffffffffffffffffffffffffffffffffffff16637bfe9efd83336040518363ffffffff1660e01b8152600401620006269291906200111e565b600060405180830381600087803b1580156200064157600080fd5b505af115801562000656573d6000803e3d6000fd5b505050505050565b62000668620006eb565b600073ffffffffffffffffffffffffffffffffffffffff168173ffffffffffffffffffffffffffffffffffffffff1603620006dd5760006040517f1e4fbdf7000000000000000000000000000000000000000000000000000000008152600401620006d4919062000bb8565b60405180910390fd5b620006e8816200077b565b50565b620006f56200083f565b73ffffffffffffffffffffffffffffffffffffffff16620007156200037e565b73ffffffffffffffffffffffffffffffffffffffff161462000779576200073b6200083f565b6040517f118cdaa700000000000000000000000000000000000000000000000000000000815260040162000770919062000bb8565b60405180910390fd5b565b60008060009054906101000a900473ffffffffffffffffffffffffffffffffffffffff169050816000806101000a81548173ffffffffffffffffffffffffffffffffffffffff021916908373ffffffffffffffffffffffffffffffffffffffff1602179055508173ffffffffffffffffffffffffffffffffffffffff168173ffffffffffffffffffffffffffffffffffffffff167f8be0079c531659141344cd1fd0a4f28419497f9722a3daafe3b4186f6b6457e060405160405180910390a35050565b600033905090565b61330b806200114c83390190565b6000604051905090565b600080fd5b600080fd5b600073ffffffffffffffffffffffffffffffffffffffff82169050919050565b6000620008968262000869565b9050919050565b620008a88162000889565b8114620008b457600080fd5b50565b600081359050620008c8816200089d565b92915050565b6000620008db8262000869565b9050919050565b620008ed81620008ce565b8114620008f957600080fd5b50565b6000813590506200090d81620008e2565b92915050565b6000819050919050565b620009288162000913565b81146200093457600080fd5b50565b60008135905062000948816200091d565b92915050565b600080600080608085870312156200096b576200096a6200085f565b5b60006200097b87828801620008b7565b94505060206200098e87828801620008fc565b9350506040620009a187828801620008b7565b9250506060620009b48782880162000937565b91505092959194509250565b600080fd5b600080fd5b6000601f19601f8301169050919050565b7f4e487b7100000000000000000000000000000000000000000000000000000000600052604160045260246000fd5b62000a1582620009ca565b810181811067ffffffffffffffff8211171562000a375762000a36620009db565b5b80604052505050565b600062000a4c62000855565b905062000a5a828262000a0a565b919050565b600067ffffffffffffffff82111562000a7d5762000a7c620009db565b5b62000a8882620009ca565b9050602081019050919050565b82818337600083830152505050565b600062000abb62000ab58462000a5f565b62000a40565b90508281526020810184848401111562000ada5762000ad9620009c5565b5b62000ae784828562000a95565b509392505050565b600082601f83011262000b075762000b06620009c0565b5b813562000b1984826020860162000aa4565b91505092915050565b6000806040838503121562000b3c5762000b3b6200085f565b5b600083013567ffffffffffffffff81111562000b5d5762000b5c62000864565b5b62000b6b8582860162000aef565b925050602083013567ffffffffffffffff81111562000b8f5762000b8e62000864565b5b62000b9d8582860162000aef565b9150509250929050565b62000bb28162000889565b82525050565b600060208201905062000bcf600083018462000ba7565b92915050565b60006020828403121562000bee5762000bed6200085f565b5b600062000bfe84828501620008b7565b91505092915050565b600081519050919050565b600082825260208201905092915050565b6000819050602082019050919050565b62000c3e8162000913565b82525050565b600062000c52838362000c33565b60208301905092915050565b6000602082019050919050565b600062000c788262000c07565b62000c84818562000c12565b935062000c918362000c23565b8060005b8381101562000cc857815162000cac888262000c44565b975062000cb98362000c5e565b92505060018101905062000c95565b5085935050505092915050565b6000602082019050818103600083015262000cf1818462000c6b565b905092915050565b600080600080600060a0868803121562000d185762000d176200085f565b5b600062000d2888828901620008b7565b955050602062000d3b88828901620008b7565b945050604062000d4e8882890162000937565b935050606062000d618882890162000937565b925050608062000d748882890162000937565b9150509295509295909350565b62000d8c8162000913565b82525050565b600060208201905062000da9600083018462000d81565b92915050565b6000806040838503121562000dc95762000dc86200085f565b5b600062000dd98582860162000937565b925050602062000dec85828601620008b7565b9150509250929050565b62000e0181620008ce565b82525050565b600060808201905062000e1e600083018762000ba7565b62000e2d602083018662000df6565b62000e3c604083018562000ba7565b62000e4b606083018462000d81565b95945050505050565b6000819050919050565b600062000e7f62000e7962000e738462000869565b62000e54565b62000869565b9050919050565b600062000e938262000e5e565b9050919050565b600062000ea78262000e86565b9050919050565b62000eb98162000e9a565b82525050565b600060808201905062000ed6600083018762000ba7565b62000ee5602083018662000eae565b62000ef4604083018562000ba7565b62000f03606083018462000d81565b95945050505050565b600081519050919050565b600082825260208201905092915050565b60005b8381101562000f4857808201518184015260208101905062000f2b565b60008484015250505050565b600062000f618262000f0c565b62000f6d818562000f17565b935062000f7f81856020860162000f28565b62000f8a81620009ca565b840191505092915050565b6000604082019050818103600083015262000fb1818562000f54565b9050818103602083015262000fc7818462000f54565b90509392505050565b600060408201905062000fe7600083018562000ba7565b62000ff6602083018462000ba7565b9392505050565b7f4e487b7100000000000000000000000000000000000000000000000000000000600052603260045260246000fd5b7f4e487b7100000000000000000000000000000000000000000000000000000000600052601160045260246000fd5b6000620010688262000913565b91507fffffffffffffffffffffffffffffffffffffffffffffffffffffffffffffffff82036200109d576200109c6200102c565b5b600182019050919050565b6000604082019050620010bf600083018562000ba7565b620010ce602083018462000d81565b9392505050565b600081519050620010e6816200091d565b92915050565b6000602082840312156200110557620011046200085f565b5b60006200111584828501620010d5565b91505092915050565b600060408201905062001135600083018562000d81565b62001144602083018462000ba7565b939250505056fe608060405260026007553480156200001657600080fd5b506040516200330b3803806200330b83398181016040528101906200003c9190620001ff565b818181600090816200004f9190620004cf565b508060019081620000619190620004cf565b5050505050620005b6565b6000604051905090565b600080fd5b600080fd5b600080fd5b600080fd5b6000601f19601f8301169050919050565b7f4e487b7100000000000000000000000000000000000000000000000000000000600052604160045260246000fd5b620000d5826200008a565b810181811067ffffffffffffffff82111715620000f757620000f66200009b565b5b80604052505050565b60006200010c6200006c565b90506200011a8282620000ca565b919050565b600067ffffffffffffffff8211156200013d576200013c6200009b565b5b62000148826200008a565b9050602081019050919050565b60005b838110156200017557808201518184015260208101905062000158565b60008484015250505050565b60006200019862000192846200011f565b62000100565b905082815260208101848484011115620001b757620001b662000085565b5b620001c484828562000155565b509392505050565b600082601f830112620001e457620001e362000080565b5b8151620001f684826020860162000181565b91505092915050565b6000806040838503121562000219576200021862000076565b5b600083015167ffffffffffffffff8111156200023a57620002396200007b565b5b6200024885828601620001cc565b925050602083015167ffffffffffffffff8111156200026c576200026b6200007b565b5b6200027a85828601620001cc565b9150509250929050565b600081519050919050565b7f4e487b7100000000000000000000000000000000000000000000000000000000600052602260045260246000fd5b60006002820490506001821680620002d757607f821691505b602082108103620002ed57620002ec6200028f565b5b50919050565b60008190508160005260206000209050919050565b60006020601f8301049050919050565b600082821b905092915050565b600060088302620003577fffffffffffffffffffffffffffffffffffffffffffffffffffffffffffffffff8262000318565b62000363868362000318565b95508019841693508086168417925050509392505050565b6000819050919050565b6000819050919050565b6000620003b0620003aa620003a4846200037b565b62000385565b6200037b565b9050919050565b6000819050919050565b620003cc836200038f565b620003e4620003db82620003b7565b84845462000325565b825550505050565b600090565b620003fb620003ec565b62000408818484620003c1565b505050565b5b81811015620004305762000424600082620003f1565b6001810190506200040e565b5050565b601f8211156200047f576200044981620002f3565b620004548462000308565b8101602085101562000464578190505b6200047c620004738562000308565b8301826200040d565b50505b505050565b600082821c905092915050565b6000620004a46000198460080262000484565b1980831691505092915050565b6000620004bf838362000491565b9150826002028217905092915050565b620004da8262000284565b67ffffffffffffffff811115620004f657620004f56200009b565b5b620005028254620002be565b6200050f82828562000434565b600060209050601f83116001811462000547576000841562000532578287015190505b6200053e8582620004b1565b865550620005ae565b601f1984166200055786620002f3565b60005b8281101562000581578489015182556001820191506020850194506020810190506200055a565b86831015620005a157848901516200059d601f89168262000491565b8355505b6001600288020188555050505b505050505050565b612d4580620005c66000396000f3fe60806040526004361061011f5760003560e01c806370a08231116100a0578063a22cb46511610064578063a22cb46514610403578063b88d4fde1461042c578063c87b56dd14610455578063ca7dd37514610492578063e985e9c5146104cf5761011f565b806370a08231146103175780637bfe9efd146103545780637fd6f15c1461037057806395d89b411461039b578063a1448194146103c65761011f565b806342842e0e116100e757806342842e0e1461021b57806351f28e14146102445780636352211e1461028657806365e17c9d146102c357806368155ec1146102ee5761011f565b806301ffc9a71461012457806306fdde0314610161578063081812fc1461018c578063095ea7b3146101c957806323b872dd146101f2575b600080fd5b34801561013057600080fd5b5061014b60048036038101906101469190612044565b61050c565b604051610158919061208c565b60405180910390f35b34801561016d57600080fd5b506101766105ee565b6040516101839190612137565b60405180910390f35b34801561019857600080fd5b506101b360048036038101906101ae919061218f565b610680565b6040516101c091906121fd565b60405180910390f35b3480156101d557600080fd5b506101f060048036038101906101eb9190612244565b61069c565b005b3480156101fe57600080fd5b5061021960048036038101906102149190612284565b6106b2565b005b34801561022757600080fd5b50610242600480360381019061023d9190612284565b6107b4565b005b34801561025057600080fd5b5061026b6004803603810190610266919061218f565b6107d4565b60405161027d96959493929190612307565b60405180910390f35b34801561029257600080fd5b506102ad60048036038101906102a8919061218f565b61087d565b6040516102ba91906121fd565b60405180910390f35b3480156102cf57600080fd5b506102d861088f565b6040516102e59190612368565b60405180910390f35b3480156102fa57600080fd5b50610315600480360381019061031091906123af565b6108b5565b005b34801561032357600080fd5b5061033e60048036038101906103399190612416565b6109d8565b60405161034b9190612443565b60405180910390f35b61036e6004803603810190610369919061245e565b610a92565b005b34801561037c57600080fd5b50610385610e36565b6040516103929190612443565b60405180910390f35b3480156103a757600080fd5b506103b0610e3c565b6040516103bd9190612137565b60405180910390f35b3480156103d257600080fd5b506103ed60048036038101906103e89190612244565b610ece565b6040516103fa9190612443565b60405180910390f35b34801561040f57600080fd5b5061042a600480360381019061042591906124ca565b6110e8565b005b34801561043857600080fd5b50610453600480360381019061044e919061263f565b6110fe565b005b34801561046157600080fd5b5061047c6004803603810190610477919061218f565b61111b565b6040516104899190612137565b60405180910390f35b34801561049e57600080fd5b506104b960048036038101906104b4919061218f565b611184565b6040516104c69190612443565b60405180910390f35b3480156104db57600080fd5b506104f660048036038101906104f191906126c2565b6111c9565b604051610503919061208c565b60405180910390f35b60007f80ac58cd000000000000000000000000000000000000000000000000000000007bffffffffffffffffffffffffffffffffffffffffffffffffffffffff1916827bffffffffffffffffffffffffffffffffffffffffffffffffffffffff191614806105d757507f5b5e139f000000000000000000000000000000000000000000000000000000007bffffffffffffffffffffffffffffffffffffffffffffffffffffffff1916827bffffffffffffffffffffffffffffffffffffffffffffffffffffffff1916145b806105e757506105e68261125d565b5b9050919050565b6060600080546105fd90612731565b80601f016020809104026020016040519081016040528092919081815260200182805461062990612731565b80156106765780601f1061064b57610100808354040283529160200191610676565b820191906000526020600020905b81548152906001019060200180831161065957829003601f168201915b5050505050905090565b600061068b826112c7565b506106958261134f565b9050919050565b6106ae82826106a961138c565b611394565b5050565b600073ffffffffffffffffffffffffffffffffffffffff168273ffffffffffffffffffffffffffffffffffffffff16036107245760006040517f64a0ae9200000000000000000000000000000000000000000000000000000000815260040161071b91906121fd565b60405180910390fd5b6000610738838361073361138c565b6113a6565b90508373ffffffffffffffffffffffffffffffffffffffff168173ffffffffffffffffffffffffffffffffffffffff16146107ae578382826040517f64283d7b0000000000000000000000000000000000000000000000000000000081526004016107a593929190612762565b60405180910390fd5b50505050565b6107cf838383604051806020016040528060008152506110fe565b505050565b60096020528060005260406000206000915090508060000160009054906101000a900473ffffffffffffffffffffffffffffffffffffffff16908060010154908060020160009054906101000a900473ffffffffffffffffffffffffffffffffffffffff16908060030160009054906101000a900473ffffffffffffffffffffffffffffffffffffffff16908060040154908060050160009054906101000a900460ff16905086565b6000610888826112c7565b9050919050565b600860009054906101000a900473ffffffffffffffffffffffffffffffffffffffff1681565b600073ffffffffffffffffffffffffffffffffffffffff168273ffffffffffffffffffffffffffffffffffffffff161461095d578173ffffffffffffffffffffffffffffffffffffffff166323b872dd8585846040518463ffffffff1660e01b8152600401610926939291906127f8565b600060405180830381600087803b15801561094057600080fd5b505af1158015610954573d6000803e3d6000fd5b505050506109d2565b8273ffffffffffffffffffffffffffffffffffffffff166108fc829081150290604051600060405180830381858888f193505050506109d1576040517f08c379a00000000000000000000000000000000000000000000000000000000081526004016109c8906128a1565b60405180910390fd5b5b50505050565b60008073ffffffffffffffffffffffffffffffffffffffff168273ffffffffffffffffffffffffffffffffffffffff1603610a4b5760006040517f89c62b64000000000000000000000000000000000000000000000000000000008152600401610a4291906121fd565b60405180910390fd5b600360008373ffffffffffffffffffffffffffffffffffffffff1673ffffffffffffffffffffffffffffffffffffffff168152602001908152602001600020549050919050565b6000610a9d83611184565b90506000600960008581526020019081526020016000206040518060c00160405290816000820160009054906101000a900473ffffffffffffffffffffffffffffffffffffffff1673ffffffffffffffffffffffffffffffffffffffff1673ffffffffffffffffffffffffffffffffffffffff168152602001600182015481526020016002820160009054906101000a900473ffffffffffffffffffffffffffffffffffffffff1673ffffffffffffffffffffffffffffffffffffffff1673ffffffffffffffffffffffffffffffffffffffff1681526020016003820160009054906101000a900473ffffffffffffffffffffffffffffffffffffffff1673ffffffffffffffffffffffffffffffffffffffff1673ffffffffffffffffffffffffffffffffffffffff168152602001600482015481526020016005820160009054906101000a900460ff161515151581525050905081341015610c35576040517f08c379a0000000000000000000000000000000000000000000000000000000008152600401610c2c90612933565b60405180910390fd5b8060a0015115610c7a576040517f08c379a0000000000000000000000000000000000000000000000000000000008152600401610c719061299f565b60405180910390fd5b806040015173ffffffffffffffffffffffffffffffffffffffff166108fc82608001519081150290604051600060405180830381858888f19350505050158015610cc8573d6000803e3d6000fd5b5060018160a0019015159081151581525050806000015173ffffffffffffffffffffffffffffffffffffffff166323b872dd826040015185876040518463ffffffff1660e01b8152600401610d1f939291906129bf565b600060405180830381600087803b158015610d3957600080fd5b505af1158015610d4d573d6000803e3d6000fd5b50505050826009600086815260200190815260200160002060030160006101000a81548173ffffffffffffffffffffffffffffffffffffffff021916908373ffffffffffffffffffffffffffffffffffffffff1602179055508273ffffffffffffffffffffffffffffffffffffffff16816040015173ffffffffffffffffffffffffffffffffffffffff163073ffffffffffffffffffffffffffffffffffffffff167feb63d138ac814e90b4d90e51c5d97954429da77f7266e9aa0bf33bd9863f131d84602001518560800151604051610e289291906129f6565b60405180910390a450505050565b60075481565b606060018054610e4b90612731565b80601f0160208091040260200160405190810160405280929190818152602001828054610e7790612731565b8015610ec45780601f10610e9957610100808354040283529160200191610ec4565b820191906000526020600020905b815481529060010190602001808311610ea757829003601f168201915b5050505050905090565b6000806006549050610ee084826115c0565b6040518060c001604052803073ffffffffffffffffffffffffffffffffffffffff1681526020018281526020018573ffffffffffffffffffffffffffffffffffffffff168152602001600073ffffffffffffffffffffffffffffffffffffffff168152602001848152602001600015158152506009600083815260200190815260200160002060008201518160000160006101000a81548173ffffffffffffffffffffffffffffffffffffffff021916908373ffffffffffffffffffffffffffffffffffffffff1602179055506020820151816001015560408201518160020160006101000a81548173ffffffffffffffffffffffffffffffffffffffff021916908373ffffffffffffffffffffffffffffffffffffffff16021790555060608201518160030160006101000a81548173ffffffffffffffffffffffffffffffffffffffff021916908373ffffffffffffffffffffffffffffffffffffffff1602179055506080820151816004015560a08201518160050160006101000a81548160ff0219169083151502179055509050506006600081548092919061108590612a4e565b9190505550803073ffffffffffffffffffffffffffffffffffffffff167f4e87d65c4baed28b185aa1f2f583850f4140e7ee01ee27c4e06f622d085b1bfc866000876040516110d693929190612a96565b60405180910390a38091505092915050565b6110fa6110f361138c565b83836115de565b5050565b6111098484846106b2565b6111158484848461174d565b50505050565b6060611126826112c7565b506000611131611904565b90506000815111611151576040518060200160405280600081525061117c565b8061115b8461191b565b60405160200161116c929190612b09565b6040516020818303038152906040525b915050919050565b6000606460075460646111979190612b2d565b60096000858152602001908152602001600020600401546111b89190612b61565b6111c29190612bd2565b9050919050565b6000600560008473ffffffffffffffffffffffffffffffffffffffff1673ffffffffffffffffffffffffffffffffffffffff16815260200190815260200160002060008373ffffffffffffffffffffffffffffffffffffffff1673ffffffffffffffffffffffffffffffffffffffff16815260200190815260200160002060009054906101000a900460ff16905092915050565b60007f01ffc9a7000000000000000000000000000000000000000000000000000000007bffffffffffffffffffffffffffffffffffffffffffffffffffffffff1916827bffffffffffffffffffffffffffffffffffffffffffffffffffffffff1916149050919050565b6000806112d3836119e9565b9050600073ffffffffffffffffffffffffffffffffffffffff168173ffffffffffffffffffffffffffffffffffffffff160361134657826040517f7e27328900000000000000000000000000000000000000000000000000000000815260040161133d9190612443565b60405180910390fd5b80915050919050565b60006004600083815260200190815260200160002060009054906101000a900473ffffffffffffffffffffffffffffffffffffffff169050919050565b600033905090565b6113a18383836001611a26565b505050565b6000806113b2846119e9565b9050600073ffffffffffffffffffffffffffffffffffffffff168373ffffffffffffffffffffffffffffffffffffffff16146113f4576113f3818486611beb565b5b600073ffffffffffffffffffffffffffffffffffffffff168173ffffffffffffffffffffffffffffffffffffffff161461148557611436600085600080611a26565b6001600360008373ffffffffffffffffffffffffffffffffffffffff1673ffffffffffffffffffffffffffffffffffffffff168152602001908152602001600020600082825403925050819055505b600073ffffffffffffffffffffffffffffffffffffffff168573ffffffffffffffffffffffffffffffffffffffff1614611508576001600360008773ffffffffffffffffffffffffffffffffffffffff1673ffffffffffffffffffffffffffffffffffffffff168152602001908152602001600020600082825401925050819055505b846002600086815260200190815260200160002060006101000a81548173ffffffffffffffffffffffffffffffffffffffff021916908373ffffffffffffffffffffffffffffffffffffffff160217905550838573ffffffffffffffffffffffffffffffffffffffff168273ffffffffffffffffffffffffffffffffffffffff167fddf252ad1be2c89b69c2b068fc378daa952ba7f163c4a11628f55a4df523b3ef60405160405180910390a4809150509392505050565b6115da828260405180602001604052806000815250611caf565b5050565b600073ffffffffffffffffffffffffffffffffffffffff168273ffffffffffffffffffffffffffffffffffffffff160361164f57816040517f5b08ba1800000000000000000000000000000000000000000000000000000000815260040161164691906121fd565b60405180910390fd5b80600560008573ffffffffffffffffffffffffffffffffffffffff1673ffffffffffffffffffffffffffffffffffffffff16815260200190815260200160002060008473ffffffffffffffffffffffffffffffffffffffff1673ffffffffffffffffffffffffffffffffffffffff16815260200190815260200160002060006101000a81548160ff0219169083151502179055508173ffffffffffffffffffffffffffffffffffffffff168373ffffffffffffffffffffffffffffffffffffffff167f17307eab39ab6107e8899845ad3d59bd9653f200f220920489ca2b5937696c3183604051611740919061208c565b60405180910390a3505050565b60008373ffffffffffffffffffffffffffffffffffffffff163b11156118fe578273ffffffffffffffffffffffffffffffffffffffff1663150b7a0261179161138c565b8685856040518563ffffffff1660e01b81526004016117b39493929190612c58565b6020604051808303816000875af19250505080156117ef57506040513d601f19601f820116820180604052508101906117ec9190612cb9565b60015b611873573d806000811461181f576040519150601f19603f3d011682016040523d82523d6000602084013e611824565b606091505b50600081510361186b57836040517f64a0ae9200000000000000000000000000000000000000000000000000000000815260040161186291906121fd565b60405180910390fd5b805181602001fd5b63150b7a0260e01b7bffffffffffffffffffffffffffffffffffffffffffffffffffffffff1916817bffffffffffffffffffffffffffffffffffffffffffffffffffffffff1916146118fc57836040517f64a0ae920000000000000000000000000000000000000000000000000000000081526004016118f391906121fd565b60405180910390fd5b505b50505050565b606060405180602001604052806000815250905090565b60606000600161192a84611ccb565b01905060008167ffffffffffffffff81111561194957611948612514565b5b6040519080825280601f01601f19166020018201604052801561197b5781602001600182028036833780820191505090505b509050600082602001820190505b6001156119de578080600190039150507f3031323334353637383961626364656600000000000000000000000000000000600a86061a8153600a85816119d2576119d1612ba3565b5b04945060008503611989575b819350505050919050565b60006002600083815260200190815260200160002060009054906101000a900473ffffffffffffffffffffffffffffffffffffffff169050919050565b8080611a5f5750600073ffffffffffffffffffffffffffffffffffffffff168273ffffffffffffffffffffffffffffffffffffffff1614155b15611b93576000611a6f846112c7565b9050600073ffffffffffffffffffffffffffffffffffffffff168373ffffffffffffffffffffffffffffffffffffffff1614158015611ada57508273ffffffffffffffffffffffffffffffffffffffff168173ffffffffffffffffffffffffffffffffffffffff1614155b8015611aed5750611aeb81846111c9565b155b15611b2f57826040517fa9fbf51f000000000000000000000000000000000000000000000000000000008152600401611b2691906121fd565b60405180910390fd5b8115611b9157838573ffffffffffffffffffffffffffffffffffffffff168273ffffffffffffffffffffffffffffffffffffffff167f8c5be1e5ebec7d5bd14f71427d1e84f3dd0314c0f7b2291e5b200ac8c7c3b92560405160405180910390a45b505b836004600085815260200190815260200160002060006101000a81548173ffffffffffffffffffffffffffffffffffffffff021916908373ffffffffffffffffffffffffffffffffffffffff16021790555050505050565b611bf6838383611e1e565b611caa57600073ffffffffffffffffffffffffffffffffffffffff168373ffffffffffffffffffffffffffffffffffffffff1603611c6b57806040517f7e273289000000000000000000000000000000000000000000000000000000008152600401611c629190612443565b60405180910390fd5b81816040517f177e802f000000000000000000000000000000000000000000000000000000008152600401611ca1929190612ce6565b60405180910390fd5b505050565b611cb98383611edf565b611cc6600084848461174d565b505050565b600080600090507a184f03e93ff9f4daa797ed6e38ed64bf6a1f0100000000000000008310611d29577a184f03e93ff9f4daa797ed6e38ed64bf6a1f0100000000000000008381611d1f57611d1e612ba3565b5b0492506040810190505b6d04ee2d6d415b85acef81000000008310611d66576d04ee2d6d415b85acef81000000008381611d5c57611d5b612ba3565b5b0492506020810190505b662386f26fc100008310611d9557662386f26fc100008381611d8b57611d8a612ba3565b5b0492506010810190505b6305f5e1008310611dbe576305f5e1008381611db457611db3612ba3565b5b0492506008810190505b6127108310611de3576127108381611dd957611dd8612ba3565b5b0492506004810190505b60648310611e065760648381611dfc57611dfb612ba3565b5b0492506002810190505b600a8310611e15576001810190505b80915050919050565b60008073ffffffffffffffffffffffffffffffffffffffff168373ffffffffffffffffffffffffffffffffffffffff1614158015611ed657508273ffffffffffffffffffffffffffffffffffffffff168473ffffffffffffffffffffffffffffffffffffffff161480611e975750611e9684846111c9565b5b80611ed557508273ffffffffffffffffffffffffffffffffffffffff16611ebd8361134f565b73ffffffffffffffffffffffffffffffffffffffff16145b5b90509392505050565b600073ffffffffffffffffffffffffffffffffffffffff168273ffffffffffffffffffffffffffffffffffffffff1603611f515760006040517f64a0ae92000000000000000000000000000000000000000000000000000000008152600401611f4891906121fd565b60405180910390fd5b6000611f5f838360006113a6565b9050600073ffffffffffffffffffffffffffffffffffffffff168173ffffffffffffffffffffffffffffffffffffffff1614611fd35760006040517f73c6ac6e000000000000000000000000000000000000000000000000000000008152600401611fca91906121fd565b60405180910390fd5b505050565b6000604051905090565b600080fd5b600080fd5b60007fffffffff0000000000000000000000000000000000000000000000000000000082169050919050565b61202181611fec565b811461202c57600080fd5b50565b60008135905061203e81612018565b92915050565b60006020828403121561205a57612059611fe2565b5b60006120688482850161202f565b91505092915050565b60008115159050919050565b61208681612071565b82525050565b60006020820190506120a1600083018461207d565b92915050565b600081519050919050565b600082825260208201905092915050565b60005b838110156120e15780820151818401526020810190506120c6565b60008484015250505050565b6000601f19601f8301169050919050565b6000612109826120a7565b61211381856120b2565b93506121238185602086016120c3565b61212c816120ed565b840191505092915050565b6000602082019050818103600083015261215181846120fe565b905092915050565b6000819050919050565b61216c81612159565b811461217757600080fd5b50565b60008135905061218981612163565b92915050565b6000602082840312156121a5576121a4611fe2565b5b60006121b38482850161217a565b91505092915050565b600073ffffffffffffffffffffffffffffffffffffffff82169050919050565b60006121e7826121bc565b9050919050565b6121f7816121dc565b82525050565b600060208201905061221260008301846121ee565b92915050565b612221816121dc565b811461222c57600080fd5b50565b60008135905061223e81612218565b92915050565b6000806040838503121561225b5761225a611fe2565b5b60006122698582860161222f565b925050602061227a8582860161217a565b9150509250929050565b60008060006060848603121561229d5761229c611fe2565b5b60006122ab8682870161222f565b93505060206122bc8682870161222f565b92505060406122cd8682870161217a565b9150509250925092565b6122e081612159565b82525050565b60006122f1826121bc565b9050919050565b612301816122e6565b82525050565b600060c08201905061231c60008301896121ee565b61232960208301886122d7565b61233660408301876122f8565b61234360608301866122f8565b61235060808301856122d7565b61235d60a083018461207d565b979650505050505050565b600060208201905061237d60008301846122f8565b92915050565b61238c816122e6565b811461239757600080fd5b50565b6000813590506123a981612383565b92915050565b600080600080608085870312156123c9576123c8611fe2565b5b60006123d78782880161222f565b94505060206123e88782880161239a565b93505060406123f98782880161222f565b925050606061240a8782880161217a565b91505092959194509250565b60006020828403121561242c5761242b611fe2565b5b600061243a8482850161222f565b91505092915050565b600060208201905061245860008301846122d7565b92915050565b6000806040838503121561247557612474611fe2565b5b60006124838582860161217a565b92505060206124948582860161222f565b9150509250929050565b6124a781612071565b81146124b257600080fd5b50565b6000813590506124c48161249e565b92915050565b600080604083850312156124e1576124e0611fe2565b5b60006124ef8582860161222f565b9250506020612500858286016124b5565b9150509250929050565b600080fd5b600080fd5b7f4e487b7100000000000000000000000000000000000000000000000000000000600052604160045260246000fd5b61254c826120ed565b810181811067ffffffffffffffff8211171561256b5761256a612514565b5b80604052505050565b600061257e611fd8565b905061258a8282612543565b919050565b600067ffffffffffffffff8211156125aa576125a9612514565b5b6125b3826120ed565b9050602081019050919050565b82818337600083830152505050565b60006125e26125dd8461258f565b612574565b9050828152602081018484840111156125fe576125fd61250f565b5b6126098482856125c0565b509392505050565b600082601f8301126126265761262561250a565b5b81356126368482602086016125cf565b91505092915050565b6000806000806080858703121561265957612658611fe2565b5b60006126678782880161222f565b94505060206126788782880161222f565b93505060406126898782880161217a565b925050606085013567ffffffffffffffff8111156126aa576126a9611fe7565b5b6126b687828801612611565b91505092959194509250565b600080604083850312156126d9576126d8611fe2565b5b60006126e78582860161222f565b92505060206126f88582860161222f565b9150509250929050565b7f4e487b7100000000000000000000000000000000000000000000000000000000600052602260045260246000fd5b6000600282049050600182168061274957607f821691505b60208210810361275c5761275b612702565b5b50919050565b600060608201905061277760008301866121ee565b61278460208301856122d7565b61279160408301846121ee565b949350505050565b6000819050919050565b60006127be6127b96127b4846121bc565b612799565b6121bc565b9050919050565b60006127d0826127a3565b9050919050565b60006127e2826127c5565b9050919050565b6127f2816127d7565b82525050565b600060608201905061280d60008301866121ee565b61281a60208301856127e9565b61282760408301846122d7565b949350505050565b7f5472616e73666572206f662045544820746f207265636569766572206661696c60008201527f6564000000000000000000000000000000000000000000000000000000000000602082015250565b600061288b6022836120b2565b91506128968261282f565b604082019050919050565b600060208201905081810360008301526128ba8161287e565b9050919050565b7f6e6f7420656e6f756768206d6174696320746f20636f766572206974656d207060008201527f7269636520616e64206d61726b65742066656500000000000000000000000000602082015250565b600061291d6033836120b2565b9150612928826128c1565b604082019050919050565b6000602082019050818103600083015261294c81612910565b9050919050565b7f6974656d20616c726561647920736f6c64000000000000000000000000000000600082015250565b60006129896011836120b2565b915061299482612953565b602082019050919050565b600060208201905081810360008301526129b88161297c565b9050919050565b60006060820190506129d460008301866127e9565b6129e160208301856121ee565b6129ee60408301846122d7565b949350505050565b6000604082019050612a0b60008301856122d7565b612a1860208301846122d7565b9392505050565b7f4e487b7100000000000000000000000000000000000000000000000000000000600052601160045260246000fd5b6000612a5982612159565b91507fffffffffffffffffffffffffffffffffffffffffffffffffffffffffffffffff8203612a8b57612a8a612a1f565b5b600182019050919050565b6000606082019050612aab60008301866121ee565b612ab860208301856121ee565b612ac560408301846122d7565b949350505050565b600081905092915050565b6000612ae3826120a7565b612aed8185612acd565b9350612afd8185602086016120c3565b80840191505092915050565b6000612b158285612ad8565b9150612b218284612ad8565b91508190509392505050565b6000612b3882612159565b9150612b4383612159565b9250828201905080821115612b5b57612b5a612a1f565b5b92915050565b6000612b6c82612159565b9150612b7783612159565b9250828202612b8581612159565b91508282048414831517612b9c57612b9b612a1f565b5b5092915050565b7f4e487b7100000000000000000000000000000000000000000000000000000000600052601260045260246000fd5b6000612bdd82612159565b9150612be883612159565b925082612bf857612bf7612ba3565b5b828204905092915050565b600081519050919050565b600082825260208201905092915050565b6000612c2a82612c03565b612c348185612c0e565b9350612c448185602086016120c3565b612c4d816120ed565b840191505092915050565b6000608082019050612c6d60008301876121ee565b612c7a60208301866121ee565b612c8760408301856122d7565b8181036060830152612c998184612c1f565b905095945050505050565b600081519050612cb381612018565b92915050565b600060208284031215612ccf57612cce611fe2565b5b6000612cdd84828501612ca4565b91505092915050565b6000604082019050612cfb60008301856121ee565b612d0860208301846122d7565b939250505056fea2646970667358221220498f91ad958d6954e0ed1a889cbac5a9d4a0c0917e46839b64f22a9751a2658d64736f6c63430008140033a264697066735822122083408f7ec97a9110c9f5bef2870c881bdb7b265cb4c25bf191d1caa6f64d524564736f6c63430008140033",
  "linkReferences": {},
  "deployedLinkReferences": {}
}